:100000000C942A000C9447000C9447000C94470071
:100010000C9447000C9447000C9447000C94470044
:100020000C9447000C9447000C9447000C94470034
:100030000C9447000C9447000C9447000C94470024
:100040000C9447000C9447000C9447000C94470014
:100050000C94470011241FBECFE5D4E0DEBFCDBF16
:1000600010E0A0E6B0E0EEE7F1E002C005900D92EE
:10007000A036B107D9F710E0A0E6B0E001C01D92AC
:10008000A036B107E1F70E9449000C94BD000C9422
:100090000000EF92FF920F931F938FEF84BB1ABA69
:1000A00080E88BBB28EC30E090E4E92E89E7F82E5D
:1000B00004E210E3B9E1A2E172E068EF58E14FEF2A
:1000C000CF9959C015BA88EE93E0F9013197F1F74D
:1000D0000197D9F7E5BA88EE93E0F9013197F1F786
:1000E0000197D9F7F5BA88EE93E0F9013197F1F766
:1000F0000197D9F705BB88EE93E0F9013197F1F745
:100100000197D9F715BB88EE93E0F9013197F1F724
:100110000197D9F7B5BB88EE93E0F9013197F1F774
:100120000197D9F7A5BB88EE93E0F9013197F1F774
:100130000197D9F775BB88EE93E0F9013197F1F794
:100140000197D9F765BB88EE93E0F9013197F1F794
:100150000197D9F715BA88EE93E0F9013197F1F7D5
:100160000197D9F755BB88EE93E0F9013197F1F784
:0E0170000197D9F7A5CF45BBA3CFF894FFCFD9
:00000001FF
